:020000040800F2
:1000000008A000209D010008710700086503000892
:100010006F070008E50100089908000800000000CB
:10002000000000000000000000000000A50700081C
:10003000E7010008000000007307000845080008F9
:10004000B7010008B7010008B7010008B7010008B0
:10005000B7010008B7010008B7010008B7010008A0
:10006000B7010008B7010008B7010008B701000890
:10007000B7010008B7010008B7010008B701000880
:10008000B7010008B7010008B7010008B701000870
:10009000B7010008B7010008B7010008B701000860
:1000A000B7010008B7010008B7010008B701000850
:1000B000B7010008B7010008B7010008B701000840
:1000C000B7010008B7010008B7010008B701000830
:1000D000B7010008B7010008B7010008B701000820
:1000E000B7010008B7010008B7010008B701000810
:1000F000B7010008B7010008B7010008B701000800
:10010000B7010008B7010008B7010008B7010008EF
:10011000B7010008B7010008B7010008B7010008DF
:10012000B7010008B7010008B7010008B7010008CF
:10013000B7010008B7010008B7010008B7010008BF
:10014000B7010008B7010008B7010008B7010008AF
:10015000B7010008B7010008B7010008B70100089F
:10016000B7010008B7010008B7010008B70100088F
:10017000B7010008B7010008B7010008B70100087F
:10018000B7010008B7010008DFF80CD000F018F83C
:1001900000480047B908000808A00020064880472A
:1001A00006480047FEE7FEE7FEE7FEE7FEE7FEE75C
:1001B000FEE7FEE7FEE7FEE74908000889010008C0
:1001C000064C074D06E0E06840F0010394E80700A4
:1001D00098471034AC42F6D3FFF7DAFFC80800089E
:1001E000E8080008FEE770474FF0204202EB80006D
:1001F0000029016802D041F0010101E0014A1140EB
:1002000001607047FEFF0F0030B5D0E901121143C5
:10021000D0E903231A4311434269036811438269F9
:100220001143C2691143026A1143426A1143826A4F
:100230001143C26A1143026B11434FF0204242F84E
:1002400023108168082906D1016802EB81010B683F
:1002500043F040030B60416BD1E9003443EA0413DF
:100260008C68CD68240244EA054423430C6943EAC0
:1002700004534C69896943EA04630B43016802EB48
:1002800081014B60C16AB1F5804F07D000686FF003
:10029000704102EB8000C0F8041130BD816B006832
:1002A000D1E9003443EA04138C680D69240244EA5E
:1002B000055423434C69896943EA046302EB8000D7
:1002C0000B43C0F8043130BDF0B5002201234FF0DC
:1002D000030C00BF0D6803FA02F42540A5422DD19E
:1002E000066854000CFA04F5AE4306600E79076800
:1002F000A6403E4306600E79012E01D0022E12D197
:100300008668AE4386604D798668A5403543856032
:10031000456803FA02F6B543456045688E79964014
:10032000B6B235434560C56856000CFA06F7BD43C2
:10033000C560CD79A540C4682543C560521C102A0C
:10034000C8D3F0BD4B07DB0E9A40C90810B500EBCF
:100350008100016A0F249C40A1430162016A11439C
:10036000016210BDFEE7000030B50024054640F2F2
:100370003F13EF222146204600F0CCF94FF0C04158
:100380002220088003484FF496310580641C8C427B
:10039000FBD330BD000002607CB501211A2000F0C3
:1003A000E9F902248DF804404CF6B3708DF805404D
:1003B0000025424E00908DF806508DF807406946A2
:1003C0003046FFF781FF0C2200213046FFF7BAFFCD
:1003D0000C2201213046FFF7B5FF0C2204213046E4
:1003E000FFF7B0FF0C2205213046FFF7ABFF0C22D0
:1003F00008213046FFF7A6FF0C2209213046FFF7FF
:10040000A1FF0C220A213046FFF79CFF0C220E218F
:100410003046FFF797FF0C220F213046FFF792FF7F
:100420000C220B213046FFF78DFF0C2207213046AE
:10043000FFF788FF4FF68070214E009069463046E6
:10044000FFF742FF0C2207213046FFF77BFF0C220B
:1004500008213046FFF776FF0C2209213046FFF7CE
:1004600071FF0C220A213046FFF76CFF0C220B2192
:100470003046FFF767FF0C2211463046FFF762FF58
:100480000C220D213046FFF75DFF0C220E21304675
:10049000FFF758FF0C220F213046FFF753FF0120D2
:1004A0008DF804008DF806508DF8054000948DF805
:1004B000075069460348FFF707FF7CBD000C024068
:1004C000001002400004024004E00021491C89B2EF
:1004D0000229FBD30100A0F1010080B2F5D17047E1
:1004E00000B5012197B0084600F050F9072100201F
:1004F000CDE90F10CDE911104FF08051CDE9140175
:10050000139008210090CDE901011021CDE90310DD
:100510000590069009020790CDE908010A900B901A
:100520000C900FA80D900E906846FFF76DFE01210C
:100530000020FFF759FE17B000BD000010B500F015
:100540000FF90520FFF7C0FF002000F0BDF85D495E
:100550008880A0F51341203902D0B0F5134F7CD12B
:100560000021084600F0F4F84FF48071012000F0FB
:10057000EFF84FF4E061022000F0EAF841F21801D0
:10058000032000F0E5F80021042000F0E1F840F23B
:100590000221082000F0DCF80021092000F0D8F842
:1005A00000210A2000F0D4F801210C2000F0D0F83E
:1005B00000210D2000F0CCF800210F2000F0C8F839
:1005C0000A20FFF781FF40F20111072000F0C0F878
:1005D0000A20FFF779FF4FF48651102000F0B8F899
:1005E0000721112000F0B4F84FF488731946122047
:1005F00000F0AEF84FF43061132000F0A9F80021AC
:10060000292000F0A5F844F210012B2000F0A0F8FA
:100610000021502000F09CF8EF21512000F098F8C4
:100620000021522000F094F840F23F11532000F0D6
:100630008FF84FF41C51602000F08AF801216120EE
:1006400000F086F800216A2000F082F80021802066
:1006500000F07EF80021812000E02EE000F078F824
:100660000021822000F074F80021832000F070F84F
:100670000021842000F06CF80021852000F068F84B
:100680001021902000F064F80021922000F060F822
:100690000121932000F05CF81946952000F058F8ED
:1006A0000021972000F054F80021982000F050F825
:1006B00040F27311072000F04BF8BDE81040052010
:1006C000FFF702BF000000204FF0C0410880014842
:1006D00000887047000002600B460D4900B589880C
:1006E000A1F50942893A02D0B2F5796206D10146F4
:1006F0004E2000F02DF819464F2005E0014620203D
:1007000000F026F8194621205DF804EB00F020B82F
:1007100000000020F0B5054610060F4645EA1044DB
:100720001E4646F27001112000F012F839462846A4
:10073000FFF7D2FF2146442000F00AF83946452051
:1007400000F006F83146BDE8F0404620AFF30080E7
:100750004FF0C042108001480180704700000260E5
:1007600010B5FFF719FEBDE81040FFF7B9BEFEE770
:1007700070477047044A0029116801D0014300E026
:10078000814311607047000030380240044A00295C
:10079000116801D0014300E08143116070470000FF
:1007A0003838024070470000224900200A6842F4AD
:1007B00080320A604FF4A0630A6800F1010012F46D
:1007C000003F01D19842F7D10868800331D519481C
:1007D0004030026842F0805202601748026842F4DA
:1007E000804202601348083002680260026842F4E6
:1007F00000420260026842F4A0520260031F0F4AE6
:100800001A600A6842F080720A600A689201FCD598
:100810000B4A40F205611160016821F0030101609B
:10082000016841F0020101600168C1F38101022900
:10083000FAD1704700380240007000400854400769
:10084000003C0240704700000F4810B5016841F0BD
:10085000010101600C4A00210832116002680B4B53
:100860001A400260031D0A4A1A60026822F48022BC
:10087000026005480C300160FFF796FF05494FF014
:100880000060086010BD000000380240FFFFF6FE67
:100890001030002408ED00E0FEE702E008C8121F57
:1008A00008C1002AFAD170477047002001E001C159
:1008B000121F002AFBD1704710B5FFF73FFE002042
:1008C000FFF752FD002010BDE808000800000020DE
:1008D000080000009A080008F0080008080000203E
:1008E00000A00000AA0800080000000000000000AE
:040000050800018965
:00000001FF
